{
  "contractName": "CatalogSmartContract",
  "abi": [
    {
      "inputs": [],
      "payable": true,
      "stateMutability": "payable",
      "type": "constructor"
    },
    {
      "anonymous": false,
      "inputs": [
        {
          "indexed": false,
          "name": "username",
          "type": "bytes32"
        },
        {
          "indexed": false,
          "name": "userAddress",
          "type": "address"
        }
      ],
      "name": "NewUser",
      "type": "event"
    },
    {
      "anonymous": false,
      "inputs": [
        {
          "indexed": false,
          "name": "username",
          "type": "bytes32"
        },
        {
          "indexed": false,
          "name": "contentTitle",
          "type": "bytes32"
        },
        {
          "indexed": false,
          "name": "contentAddress",
          "type": "address"
        }
      ],
      "name": "ContentPublished",
      "type": "event"
    },
    {
      "anonymous": false,
      "inputs": [
        {
          "indexed": false,
          "name": "username",
          "type": "bytes32"
        },
        {
          "indexed": false,
          "name": "userAddress",
          "type": "address"
        },
        {
          "indexed": false,
          "name": "contentTitle",
          "type": "bytes32"
        },
        {
          "indexed": false,
          "name": "contentAddress",
          "type": "address"
        }
      ],
      "name": "GrantedAccess",
      "type": "event"
    },
    {
      "anonymous": false,
      "inputs": [
        {
          "indexed": false,
          "name": "rcvUsername",
          "type": "bytes32"
        },
        {
          "indexed": false,
          "name": "rcvUserAddress",
          "type": "address"
        },
        {
          "indexed": false,
          "name": "sndUsername",
          "type": "bytes32"
        },
        {
          "indexed": false,
          "name": "contentTitle",
          "type": "bytes32"
        },
        {
          "indexed": false,
          "name": "contentAddress",
          "type": "address"
        }
      ],
      "name": "GiftedAccess",
      "type": "event"
    },
    {
      "anonymous": false,
      "inputs": [
        {
          "indexed": false,
          "name": "username",
          "type": "bytes32"
        },
        {
          "indexed": false,
          "name": "userAddress",
          "type": "address"
        }
      ],
      "name": "GrantedPremium",
      "type": "event"
    },
    {
      "anonymous": false,
      "inputs": [
        {
          "indexed": false,
          "name": "rcvUsername",
          "type": "bytes32"
        },
        {
          "indexed": false,
          "name": "rcvUserAddress",
          "type": "address"
        },
        {
          "indexed": false,
          "name": "sndUsername",
          "type": "bytes32"
        }
      ],
      "name": "GiftedPremium",
      "type": "event"
    },
    {
      "anonymous": false,
      "inputs": [],
      "name": "CatalogDied",
      "type": "event"
    },
    {
      "constant": false,
      "inputs": [],
      "name": "killMe",
      "outputs": [],
      "payable": false,
      "stateMutability": "nonpayable",
      "type": "function"
    },
    {
      "constant": false,
      "inputs": [
        {
          "name": "_username",
          "type": "bytes32"
        }
      ],
      "name": "registerMe",
      "outputs": [],
      "payable": false,
      "stateMutability": "nonpayable",
      "type": "function"
    },
    {
      "constant": false,
      "inputs": [
        {
          "name": "_username",
          "type": "bytes32"
        },
        {
          "name": "_contentTitle",
          "type": "bytes32"
        },
        {
          "name": "_price",
          "type": "uint256"
        },
        {
          "name": "_contentAddr",
          "type": "address"
        }
      ],
      "name": "publishContent",
      "outputs": [],
      "payable": false,
      "stateMutability": "nonpayable",
      "type": "function"
    },
    {
      "constant": false,
      "inputs": [
        {
          "name": "_contentTitle",
          "type": "bytes32"
        },
        {
          "name": "_username",
          "type": "bytes32"
        }
      ],
      "name": "notifyNewView",
      "outputs": [],
      "payable": false,
      "stateMutability": "nonpayable",
      "type": "function"
    },
    {
      "constant": true,
      "inputs": [
        {
          "name": "_contentTitle",
          "type": "bytes32"
        }
      ],
      "name": "getAddressOf",
      "outputs": [
        {
          "name": "",
          "type": "address"
        }
      ],
      "payable": false,
      "stateMutability": "view",
      "type": "function"
    },
    {
      "constant": true,
      "inputs": [
        {
          "name": "_username",
          "type": "bytes32"
        }
      ],
      "name": "getUserAddress",
      "outputs": [
        {
          "name": "",
          "type": "address"
        }
      ],
      "payable": false,
      "stateMutability": "view",
      "type": "function"
    },
    {
      "constant": true,
      "inputs": [
        {
          "name": "_username",
          "type": "bytes32"
        }
      ],
      "name": "userExists",
      "outputs": [
        {
          "name": "",
          "type": "bool"
        }
      ],
      "payable": false,
      "stateMutability": "view",
      "type": "function"
    },
    {
      "constant": true,
      "inputs": [
        {
          "name": "_author",
          "type": "bytes32"
        }
      ],
      "name": "getContentsListByAuthor",
      "outputs": [
        {
          "name": "count",
          "type": "uint256"
        },
        {
          "name": "",
          "type": "bytes32[]"
        },
        {
          "name": "",
          "type": "address[]"
        },
        {
          "name": "",
          "type": "uint8[]"
        }
      ],
      "payable": false,
      "stateMutability": "view",
      "type": "function"
    },
    {
      "constant": true,
      "inputs": [
        {
          "name": "_title",
          "type": "bytes32"
        }
      ],
      "name": "getInfoOf",
      "outputs": [
        {
          "name": "",
          "type": "uint256[3]"
        },
        {
          "name": "",
          "type": "uint256"
        },
        {
          "name": "",
          "type": "bytes32"
        },
        {
          "name": "",
          "type": "uint8"
        }
      ],
      "payable": false,
      "stateMutability": "view",
      "type": "function"
    },
    {
      "constant": true,
      "inputs": [
        {
          "name": "_title",
          "type": "bytes32"
        }
      ],
      "name": "getPriceOf",
      "outputs": [
        {
          "name": "",
          "type": "uint256"
        }
      ],
      "payable": false,
      "stateMutability": "view",
      "type": "function"
    },
    {
      "constant": true,
      "inputs": [],
      "name": "getStatistics",
      "outputs": [
        {
          "name": "",
          "type": "uint256[]"
        },
        {
          "name": "",
          "type": "bytes32[]"
        }
      ],
      "payable": false,
      "stateMutability": "view",
      "type": "function"
    },
    {
      "constant": true,
      "inputs": [],
      "name": "getContentList",
      "outputs": [
        {
          "name": "",
          "type": "bytes32[]"
        }
      ],
      "payable": false,
      "stateMutability": "view",
      "type": "function"
    },
    {
      "constant": true,
      "inputs": [
        {
          "name": "_n",
          "type": "uint256"
        }
      ],
      "name": "getNewContentList",
      "outputs": [
        {
          "name": "",
          "type": "bytes32[]"
        }
      ],
      "payable": false,
      "stateMutability": "view",
      "type": "function"
    },
    {
      "constant": true,
      "inputs": [
        {
          "name": "_genre",
          "type": "bytes32"
        }
      ],
      "name": "getLatestByGenre",
      "outputs": [
        {
          "name": "",
          "type": "bytes32"
        }
      ],
      "payable": false,
      "stateMutability": "view",
      "type": "function"
    },
    {
      "constant": true,
      "inputs": [
        {
          "name": "_genre",
          "type": "bytes32"
        }
      ],
      "name": "getMostPopularByGenre",
      "outputs": [
        {
          "name": "",
          "type": "bytes32"
        }
      ],
      "payable": false,
      "stateMutability": "view",
      "type": "function"
    },
    {
      "constant": true,
      "inputs": [
        {
          "name": "_author",
          "type": "bytes32"
        }
      ],
      "name": "getLatestByAuthor",
      "outputs": [
        {
          "name": "",
          "type": "bytes32"
        }
      ],
      "payable": false,
      "stateMutability": "view",
      "type": "function"
    },
    {
      "constant": true,
      "inputs": [
        {
          "name": "_author",
          "type": "bytes32"
        }
      ],
      "name": "getMostPopularByAuthor",
      "outputs": [
        {
          "name": "",
          "type": "bytes32"
        }
      ],
      "payable": false,
      "stateMutability": "view",
      "type": "function"
    },
    {
      "constant": true,
      "inputs": [
        {
          "name": "_username",
          "type": "bytes32"
        }
      ],
      "name": "isPremium",
      "outputs": [
        {
          "name": "",
          "type": "bool"
        }
      ],
      "payable": false,
      "stateMutability": "view",
      "type": "function"
    },
    {
      "constant": true,
      "inputs": [
        {
          "name": "_category",
          "type": "uint8"
        }
      ],
      "name": "getMostRated",
      "outputs": [
        {
          "name": "",
          "type": "bytes32"
        }
      ],
      "payable": false,
      "stateMutability": "view",
      "type": "function"
    },
    {
      "constant": true,
      "inputs": [
        {
          "name": "_genre",
          "type": "bytes32"
        },
        {
          "name": "_category",
          "type": "uint8"
        }
      ],
      "name": "getMostRatedByGenre",
      "outputs": [
        {
          "name": "",
          "type": "bytes32"
        }
      ],
      "payable": false,
      "stateMutability": "view",
      "type": "function"
    },
    {
      "constant": true,
      "inputs": [
        {
          "name": "_author",
          "type": "bytes32"
        },
        {
          "name": "_category",
          "type": "uint8"
        }
      ],
      "name": "getMostRatedByAuthor",
      "outputs": [
        {
          "name": "",
          "type": "bytes32"
        }
      ],
      "payable": false,
      "stateMutability": "view",
      "type": "function"
    },
    {
      "constant": false,
      "inputs": [
        {
          "name": "_contentTitle",
          "type": "bytes32"
        }
      ],
      "name": "getContent",
      "outputs": [],
      "payable": true,
      "stateMutability": "payable",
      "type": "function"
    },
    {
      "constant": false,
      "inputs": [
        {
          "name": "_contentTitle",
          "type": "bytes32"
        }
      ],
      "name": "getContentPremium",
      "outputs": [],
      "payable": false,
      "stateMutability": "nonpayable",
      "type": "function"
    },
    {
      "constant": false,
      "inputs": [
        {
          "name": "_contentTitle",
          "type": "bytes32"
        },
        {
          "name": "_receivingUser",
          "type": "bytes32"
        }
      ],
      "name": "giftContent",
      "outputs": [],
      "payable": true,
      "stateMutability": "payable",
      "type": "function"
    },
    {
      "constant": false,
      "inputs": [
        {
          "name": "_receivingUser",
          "type": "bytes32"
        }
      ],
      "name": "giftPremium",
      "outputs": [],
      "payable": true,
      "stateMutability": "payable",
      "type": "function"
    },
    {
      "constant": false,
      "inputs": [],
      "name": "buyPremium",
      "outputs": [],
      "payable": true,
      "stateMutability": "payable",
      "type": "function"
    }
  ],
  "bytecode": "0x608060405260008054600160a060020a0319163317815560078190556002556129ca8061002d6000396000f30060806040526004361061013a5763ffffffff60e060020a600035041663022f3099811461013f578063136e2a2d146101595780631bde9244146102565780631e0e6ef6146102805780631f077185146102985780632372e762146102b6578063372d6b271461031e5780633af1bc40146103cc5780634a4e8884146103d45780635cc150011461040857806371c16be6146104135780637e5bca151461042b578063a2d58bfc14610440578063a2e8452c1461044b578063a74ec85914610477578063a918b1d514610495578063b3c060fd146104bf578063b603cd80146104d7578063b7e22126146104ec578063c99a3a38146104fa578063d4b4917e14610571578063d7bd26b714610589578063e173b0fc146105a1578063e9c1f45b146105bc578063f437ed3d146105d4578063fa86cf56146105ef575b600080fd5b34801561014b57600080fd5b50610157600435610607565b005b34801561016557600080fd5b506101716004356107a6565b60405180858152602001806020018060200180602001848103845287818151815260200191508051906020019060200280838360005b838110156101bf5781810151838201526020016101a7565b50505050905001848103835286818151815260200191508051906020019060200280838360005b838110156101fe5781810151838201526020016101e6565b50505050905001848103825285818151815260200191508051906020019060200280838360005b8381101561023d578181015183820152602001610225565b5050505090500197505050505050505060405180910390f35b34801561026257600080fd5b5061026e600435610a16565b60408051918252519081900360200190f35b34801561028c57600080fd5b50610157600435610a44565b3480156102a457600080fd5b5061026e60043560ff60243516610a81565b3480156102c257600080fd5b506102ce600435610a99565b60408051602080825283518183015283519192839290830191858101910280838360005b8381101561030a5781810151838201526020016102f2565b505050509050019250505060405180910390f35b34801561032a57600080fd5b50610333610b4c565b604051808060200180602001838103835285818151815260200191508051906020019060200280838360005b8381101561037757818101518382015260200161035f565b50505050905001838103825284818151815260200191508051906020019060200280838360005b838110156103b657818101518382015260200161039e565b5050505090500194505050505060405180910390f35b610157610cc3565b3480156103e057600080fd5b506103ec600435610daf565b60408051600160a060020a039092168252519081900360200190f35b610157600435610de6565b34801561041f57600080fd5b5061026e600435610f60565b34801561043757600080fd5b506102ce611143565b6101576004356111c5565b34801561045757600080fd5b506104636004356112a2565b604080519115158252519081900360200190f35b34801561048357600080fd5b5061026e60043560ff602435166112d4565b3480156104a157600080fd5b50610157600435602435604435600160a060020a03606435166112e4565b3480156104cb57600080fd5b50610463600435611472565b3480156104e357600080fd5b506101576114cc565b6101576004356024356117bd565b34801561050657600080fd5b50610512600435611945565b6040518085606080838360005b8381101561053757818101518382015260200161051f565b505050509190910185815260208101859052604001905082600381111561055a57fe5b60ff16815260200194505050505060405180910390f35b34801561057d57600080fd5b5061026e600435611af5565b34801561059557600080fd5b5061026e600435611c47565b3480156105ad57600080fd5b50610157600435602435611dbb565b3480156105c857600080fd5b5061026e600435611f72565b3480156105e057600080fd5b5061026e60ff60043516612137565b3480156105fb57600080fd5b506103ec60043561216b565b3360009081526004602052604081205461062081611472565b151560011461062e57600080fd5b82610638816121aa565b151560011461064657600080fd5b33600090815260046020526040902054925061066283436121c7565b151561069c576000838152600360205260408120805475ff0000000000000000000000000000000000000000001916815560010181905580fd5b60008481526005602052604080822060019081015482517fda9376f20000000000000000000000000000000000000000000000000000000081526004810188905233602482015260448101929092529151610100909204600160a060020a03169263da9376f29260648084019382900301818387803b15801561071e57600080fd5b505af1158015610732573d6000803e3d6000fd5b5050506000858152600560209081526040918290206001015482518781523392810192909252818301889052600160a060020a0361010090910416606082015290517ffec82a62fabc22d88e57d852b393e8a24538951d7e9247733d383838c178d6a092509081900360800190a150505050565b600060608060606000606080606060008060008b6107c3816112a2565b15156001146107d157600080fd5b60008d8152600360208181526040928390209091015482518181528183028101909201909252909850888015610811578160200160208202803883390190505b5096508760405190808252806020026020018201604052801561083e578160200160208202803883390190505b5095508760405190808252806020026020018201604052801561086b578160200160208202803883390190505b509450600093508392505b6007548410801561088657508783105b15610a0157600680548590811061089957fe5b600091825260208083209091015480835260059091526040909120600201549092508d14156109f6578187848151811015156108d157fe5b6020908102919091018101919091526000838152600590915260409020600101548651610100909104600160a060020a03169087908590811061091057fe5b600160a060020a03928316602091820290920181019190915260008481526005825260408082206001015481517f15dae03e0000000000000000000000000000000000000000000000000000000081529151610100909104909416936315dae03e9360048084019491938390030190829087803b15801561099057600080fd5b505af11580156109a4573d6000803e3d6000fd5b505050506040513d60208110156109ba57600080fd5b505185518690859081106109ca57fe5b9060200190602002019060038111156109df57fe5b908160038111156109ec57fe5b9052506001909201915b600190930192610876565b50959b949a5092985090965091945050505050565b600081610a22816121aa565b1515600114610a3057600080fd5b505060009081526005602052604090205490565b80610a4e816112a2565b15610a5857600080fd5b3360008181526004602052604090205415610a7257600080fd5b610a7c83336121fa565b505050565b6000610a9260018460008086612338565b9392505050565b600754606090600090819081908490861115610ab9576007549350610abd565b8593505b83604051908082528060200260200182016040528015610ae7578160200160208202803883390190505b5090505b8315610b3f57829150828060010193505060068360075403815481101515610b0f57fe5b90600052602060002001548183815181101515610b2857fe5b602090810290910101526000199390930192610aeb565b8094505b50505050919050565b606080606080600080600754604051908082528060200260200182016040528015610b81578160200160208202803883390190505b509350600754604051908082528060200260200182016040528015610bb0578160200160208202803883390190505b509250600091505b600754821015610cb8576006805483908110610bd057fe5b60009182526020808320909101548083526005825260408084206001015481517fbdb578c70000000000000000000000000000000000000000000000000000000081529151929550600160a060020a03610100909104169363bdb578c79360048084019491939192918390030190829087803b158015610c4f57600080fd5b505af1158015610c63573d6000803e3d6000fd5b505050506040513d6020811015610c7957600080fd5b50518451859084908110610c8957fe5b6020908102909101015282518190849084908110610ca357fe5b60209081029091010152600190910190610bb8565b509194909350915050565b33600090815260046020526040812054610cdc816112a2565b1515600114610cea57600080fd5b34669c51c4521e0000808214610cff57600080fd5b336000908152600460209081526040808320805480855260038452828520805475ff000000000000000000000000000000000000000000191675010000000000000000000000000000000000000000001781554361010001600190910155905480855293829020548251948552600160a060020a03169284019290925280519196507f4b4cc0df047d11de506848252c7376121cf4f660bc5cd9aec797e77db4a33f3f928290030190a150505050565b600081610dbb816112a2565b1515600114610dc957600080fd5b5050600090815260036020526040902054600160a060020a031690565b33600090815260046020526040812054610dff816112a2565b1515600114610e0d57600080fd5b82610e17816121aa565b1515600114610e2557600080fd5b6000848152600560205260409020543490808214610e4257600080fd5b336000818152600460208181526040808420548b855260059092528084206001015481517fda9376f200000000000000000000000000000000000000000000000000000000815293840183905260248401959095526044830184905251909850610100909304600160a060020a03169263da9376f29260648084019391929182900301818387803b158015610ed657600080fd5b505af1158015610eea573d6000803e3d6000fd5b50505060008781526005602090815260409182902060010154825189815233928101929092528183018a9052600160a060020a0361010090910416606082015290517ffec82a62fabc22d88e57d852b393e8a24538951d7e9247733d383838c178d6a092509081900360800190a1505050505050565b600754600090819081908180821515610f7c5760009550611139565b821561113557600680546000199094019360059160009186908110610f9d57fe5b90600052602060002001546000191660001916815260200190815260200160002060010160019054906101000a9004600160a060020a03169050866000191681600160a060020a03166320fe84f16040518163ffffffff1660e060020a028152600401602060405180830381600087803b15801561101a57600080fd5b505af115801561102e573d6000803e3d6000fd5b505050506040513d602081101561104457600080fd5b505114156111305780600160a060020a031663bdb578c76040518163ffffffff1660e060020a028152600401602060405180830381600087803b15801561108a57600080fd5b505af115801561109e573d6000803e3d6000fd5b505050506040513d60208110156110b457600080fd5b50519150838211156111305781935080600160a060020a031663ff3c1a8f6040518163ffffffff1660e060020a028152600401602060405180830381600087803b15801561110157600080fd5b505af1158015611115573d6000803e3d6000fd5b505050506040513d602081101561112b57600080fd5b505194505b610f7c565b8495505b5050505050919050565b6060806000600754604051908082528060200260200182016040528015611174578160200160208202803883390190505b509150600090505b6007548110156111bf57600680548290811061119457fe5b906000526020600020015482828151811015156111ad57fe5b6020908102909101015260010161117c565b50919050565b806111cf816112a2565b15156001146111dd57600080fd5b34669c51c4521e00008082146111f257600080fd5b6000848152600360209081526040808320805475ff000000000000000000000000000000000000000000191675010000000000000000000000000000000000000000001780825543610100016001909201919091553384526004835292819020548151888152600160a060020a039094169284019290925282810191909152517fe1c0541e5ed69496d84ce4d5d852417864bde35e49b3d6596d16722bd8c311b49181900360600190a150505050565b60009081526003602052604090205474010000000000000000000000000000000000000000900460ff16151560011490565b6000610a92818060018686612338565b6000836112f0816121aa565b156112fa57600080fd5b611303866112a2565b15156113135761131386336121fa565b82915030600160a060020a031682600160a060020a031663bdac07636040518163ffffffff1660e060020a028152600401602060405180830381600087803b15801561135e57600080fd5b505af1158015611372573d6000803e3d6000fd5b505050506040513d602081101561138857600080fd5b5051600160a060020a03161461139d57600080fd5b846000191682600160a060020a031663ff3c1a8f6040518163ffffffff1660e060020a028152600401602060405180830381600087803b1580156113e057600080fd5b505af11580156113f4573d6000803e3d6000fd5b505050506040513d602081101561140a57600080fd5b50511461141657600080fd5b61142285848887612674565b6040805187815260208101879052600160a060020a0385168183015290517f533f3b91f38a7dc7540466d8f896a002bbb1a3cb93a999a8afe12c6c3b3990069181900360600190a1505050505050565b60008161147e816112a2565b151560011461148c57600080fd5b60016000848152600360205260409020547501000000000000000000000000000000000000000000900460ff1660018111156114c457fe5b149392505050565b60008054819081908190819081908190600160a060020a031633146114f057600080fd5b600096508695505b600754871015611677576005600060068981548110151561151557fe5b90600052602060002001546000191660001916815260200190815260200160002060010160019054906101000a9004600160a060020a0316945084600160a060020a031663bdb578c76040518163ffffffff1660e060020a028152600401602060405180830381600087803b15801561158d57600080fd5b505af11580156115a1573d6000803e3d6000fd5b505050506040513d60208110156115b757600080fd5b505160068054919550600591600091908a9081106115d157fe5b600091825260208083209091015483528201929092526040019020600201549250600584061561165057600083815260036020526040902054600160a060020a03166108fc660eebe0b40e800060058706029081150290604051600060405180830381858888f1935050505015801561164e573d6000803e3d6000fd5b505b600083815260036020526040902060040180548501905560019690960195948301946114f8565b60008611156117865785303181151561168c57fe5b049150600096505b6002548710156117865760006003600060018a8154811015156116b357fe5b60009182526020808320909101548352820192909252604001902060040154111561177b57600360006001898154811015156116eb57fe5b90600052602060002001546000191660001916815260200190815260200160002060040154820290506003600060018981548110151561172757fe5b6000918252602080832090910154835282019290925260409081018220549051600160a060020a039091169183156108fc02918491818181858888f19350505050158015611779573d6000803e3d6000fd5b505b600190960195611694565b6040517facf4f6432ff0ac644a8f35f7cfe59b428d36e3be9063c4733d900e3edf7c416290600090a1600054600160a060020a0316ff5b806117c7816112a2565b15156001146117d557600080fd5b826117df816121aa565b15156001146117ed57600080fd5b600084815260056020526040902054349080821461180a57600080fd5b60008681526005602090815260408083206001015488845260039092528083205481517fda9376f2000000000000000000000000000000000000000000000000000000008152600481018a9052600160a060020a039182166024820152604481018590529151610100909304169263da9376f29260648084019382900301818387803b15801561189957600080fd5b505af11580156118ad573d6000803e3d6000fd5b50505060008681526003602090815260408083205433845260048352818420548b855260058452938290206001015482518b8152600160a060020a039283169481019490945283830194909452606083018b9052610100909304909216608082015290517f977869ccd4b0753418c4d3d72fddf79a2d125dc95afe5d768e4ca32378d0abdf92509081900360a00190a1505050505050565b61194d612958565b600080600061195a612977565b600086611966816121aa565b151560011461197457600080fd5b6000888152600560209081526040808320815160808101835281548152600182015460ff8116151594820194909452610100909304600160a060020a031683830181905260029091015460608085019190915282517ffbeb2fc40000000000000000000000000000000000000000000000000000000081529251939750909550859363fbeb2fc4936004808501949192918390030190829087803b158015611a1b57600080fd5b505af1158015611a2f573d6000803e3d6000fd5b505050506040513d601f19601f820116820180604052506060811015611a5457600080fd5b5083516060850151604080517f15dae03e0000000000000000000000000000000000000000000000000000000081529051600160a060020a038716916315dae03e9160048083019260209291908290030181600087803b158015611ab757600080fd5b505af1158015611acb573d6000803e3d6000fd5b505050506040513d6020811015611ae157600080fd5b5051929b919a509850909650945050505050565b600080600080600085611b07816112a2565b1515600114611b1557600080fd5b600754600095508594509250821515611b315760009550611139565b8215801590611b3e575083155b1561113557600680546000199094019360059160009186908110611b5e57fe5b60009182526020808320909101548352820192909252604001902060020154915086821415611c42576001935060056000600685815481101515611b9e57fe5b90600052602060002001546000191660001916815260200190815260200160002060010160019054906101000a9004600160a060020a0316600160a060020a031663ff3c1a8f6040518163ffffffff1660e060020a028152600401602060405180830381600087803b158015611c1357600080fd5b505af1158015611c27573d6000803e3d6000fd5b505050506040513d6020811015611c3d57600080fd5b505194505b611b31565b600754600090818080831515611c605760009450610b43565b8315801590611c6d575082155b15611db257600680546000199095019460059160009187908110611c8d57fe5b90600052602060002001546000191660001916815260200190815260200160002060010160019054906101000a9004600160a060020a03169050856000191681600160a060020a03166320fe84f16040518163ffffffff1660e060020a028152600401602060405180830381600087803b158015611d0a57600080fd5b505af1158015611d1e573d6000803e3d6000fd5b505050506040513d6020811015611d3457600080fd5b50511415611dad576001925080600160a060020a031663ff3c1a8f6040518163ffffffff1660e060020a028152600401602060405180830381600087803b158015611d7e57600080fd5b505af1158015611d92573d6000803e3d6000fd5b505050506040513d6020811015611da857600080fd5b505191505b611c60565b50949350505050565b60008083611dc8816121aa565b1515600114611dd657600080fd5b600085815260056020526040902060010154859033906101009004600160a060020a03168114611e0557600080fd5b85611e0f816112a2565b1515600114611e1d57600080fd5b60008881526005602090815260408083206001015481517f78755295000000000000000000000000000000000000000000000000000000008152600481018c905291518b948d94610100909304600160a060020a031693849363787552959360248084019492939192918390030190829087803b158015611e9d57600080fd5b505af1158015611eb1573d6000803e3d6000fd5b505050506040513d6020811015611ec757600080fd5b50511515600114611ed757600080fd5b33985088600160a060020a031663bdb578c76040518163ffffffff1660e060020a028152600401602060405180830381600087803b158015611f1857600080fd5b505af1158015611f2c573d6000803e3d6000fd5b505050506040513d6020811015611f4257600080fd5b5051975060058806158015611f5657508715155b15611f6557611f65898c612739565b5050505050505050505050565b60008060008060008086611f85816112a2565b1515600114611f9357600080fd5b600754600096508695509350849250831515611fb2576000965061212c565b831561212857600680546000199095019460059160009187908110611fd357fe5b600091825260208083209190910154835282019290925260400181206001015460068054610100909204600160a060020a031694508a926005929091908890811061201a57fe5b6000918252602080832090910154835282019290925260400190206002015414156121235781600160a060020a031663bdb578c76040518163ffffffff1660e060020a028152600401602060405180830381600087803b15801561207d57600080fd5b505af1158015612091573d6000803e3d6000fd5b505050506040513d60208110156120a757600080fd5b50519250848311156121235782945081600160a060020a031663ff3c1a8f6040518163ffffffff1660e060020a028152600401602060405180830381600087803b1580156120f457600080fd5b505af1158015612108573d6000803e3d6000fd5b505050506040513d602081101561211e57600080fd5b505195505b611fb2565b8596505b505050505050919050565b60008160038160ff1611158015612152575060008160ff1610155b151561215d57600080fd5b610a92600080808087612338565b600081612177816121aa565b151560011461218557600080fd5b50506000908152600560205260409020600101546101009004600160a060020a031690565b600090815260056020526040902060019081015460ff1615151490565b6000826121d3816112a2565b15156001146121e157600080fd5b5050600091825260036020526040909120600101541190565b81612204816112a2565b1561220e57600080fd5b600160a060020a03821660009081526004602052604090205482901561223357600080fd5b8361223d816112a2565b1561224757600080fd5b600160a060020a038416600081815260046020908152604080832089905588835260038252808320805474ff00000000000000000000000000000000000000001973ffffffffffffffffffffffffffffffffffffffff19909116861716740100000000000000000000000000000000000000001790556002805460019081019091558054808201825593527fb10e2d527612073b26eecdfd717e6a320cf44b4afac2b0732d9fcbe2b7fa0cf690920188905581518881529081019290925280517f5fde7be6fd256edbbe1d991a982527a20d550875499314500d2e12fd1be2e8369281900390910190a15050505050565b600080600080600080600061234b612958565b612353612958565b60008a60038160ff161115801561236e575060008160ff1610155b151561237957600080fd5b60075460001061238857600080fd5b600099508998508897508796505b6007548a101561262b576005600060068c8154811015156123b357fe5b600091825260208083209190910154835282019290925260400181206001015460068054610100909204600160a060020a03169850600592918d9081106123f657fe5b6000918252602080832090910154835282019290925260400190206002015494508d801561249157508c6000191686600160a060020a03166320fe84f16040518163ffffffff1660e060020a028152600401602060405180830381600087803b15801561246257600080fd5b505af1158015612476573d6000803e3d6000fd5b505050506040513d602081101561248c57600080fd5b505114155b1561249b57612620565b8f80156124a85750848f14155b156124b257612620565b85600160a060020a031663fbeb2fc46040518163ffffffff1660e060020a028152600401606060405180830381600087803b1580156124f057600080fd5b505af1158015612504573d6000803e3d6000fd5b505050506040513d601f19601f82011682018060405250606081101561252957600080fd5b8101908091905050935085600160a060020a03166336ee0cb96040518163ffffffff1660e060020a028152600401606060405180830381600087803b15801561257157600080fd5b505af1158015612585573d6000803e3d6000fd5b505050506040513d601f19601f8201168201806040525060608110156125aa57600080fd5b50925060ff8c1615156125de576125c184846128d8565b91508782106125d95789985081975086806001019750505b612620565b878460ff6000198f0116600381106125f257fe5b602002015110612620578998508360ff6000198e01166003811061261257fe5b602002015197506001909601955b600190990198612396565b60008711801561263b5750600088115b151561264657600080fd5b600680548a90811061265457fe5b90600052602060002001549a505050505050505050505095945050505050565b8361267e816121aa565b1561268857600080fd5b50600780546001908101909155600680548083019091557ff652222313e28459528d920b65115c16c04f3efc82aaedc97be59f3f377c0d3f018590556000858152600560209081526040808320808501805460028084018a9055600160a060020a03909a166101000274ffffffffffffffffffffffffffffffffffffffff001960ff199092168817919091161790559490945593815260039384905291909120928301939093550180549091019055565b612741612958565b612749612958565b60008085600160a060020a031663fbeb2fc46040518163ffffffff1660e060020a028152600401606060405180830381600087803b15801561278a57600080fd5b505af115801561279e573d6000803e3d6000fd5b505050506040513d601f19601f8201168201806040525060608110156127c357600080fd5b8101908091905050935085600160a060020a03166336ee0cb96040518163ffffffff1660e060020a028152600401606060405180830381600087803b15801561280b57600080fd5b505af115801561281f573d6000803e3d6000fd5b505050506040513d601f19601f82011682018060405250606081101561284457600080fd5b5060008681526005602090815260408083206002015483526003909152902054909350600160a060020a0316915061287c84846128d8565b600086815260056020819052604090912054919250600160a060020a038416916108fc91908402049081150290604051600060405180830381858888f193505050501580156128cf573d6000803e3d6000fd5b50505050505050565b60008080805b6003811015612931578581600381106128f357fe5b6020020151156129295785816003811061290957fe5b6020020151929092019184816003811061291f57fe5b6020020151820191505b6001016128de565b811561294a57818381151561294257fe5b04935061294f565b600093505b50505092915050565b6060604051908101604052806003906020820280388339509192915050565b604080516080810182526000808252602082018190529181018290526060810191909152905600a165627a7a7230582029134beeab9715420766680150bb65d9a4ab888fb0f932889abbcafca675b6dd0029",
  "source": "pragma solidity ^0.4.24;\n\nimport \"./SharedTypes.sol\";\nimport \"./Ownable.sol\";\nimport \"./BaseContentManagementContract.sol\";\n\n\ncontract CatalogSmartContract is Ownable {\n    \n    // Event list\n    event NewUser\t\t\t\t(bytes32 username, address userAddress);\n    event ContentPublished\t\t(bytes32 username, bytes32 contentTitle, address contentAddress);\n    event GrantedAccess\t\t\t(bytes32 username, address userAddress, bytes32 contentTitle, address contentAddress);\n\tevent GiftedAccess\t\t\t(bytes32 rcvUsername, address rcvUserAddress, bytes32 sndUsername, bytes32 contentTitle, address contentAddress);\n    event GrantedPremium\t\t(bytes32 username, address userAddress);\n\tevent GiftedPremium\t\t\t(bytes32 rcvUsername, address rcvUserAddress, bytes32 sndUsername);\n    event CatalogDied\t\t();\n    \n    \n\n    // Duration of premium account (in block height)\n    uint constant PREMIUM_ACCOUNT_DURATION = 256; // ~240 blocks/hour\n    \n    // Cost of premium account\n    uint constant PREMIUM_ACCOUNT_COST= 44000 szabo;    // ~ 20 \n    \n    // Cost of each single content\n    //uint constant CONTENT_COST= 6300 szabo;             // ~ 3 \n    \n    // Payout for author for each content access (this value have to be minor than CONTENT_COST)\n    uint constant PAYOUT_FOR_AUTHOR= 4200 szabo;        // ~ 2 \n    \n    // Maximum number of views before sending payment\n    uint constant MAX_VIEWS_LIMIT= 5;\n    \n    \n    // Array of users which have are registered to service\n    bytes32[] usersArray;\n    // Number of users\n    uint usersCount;\n    // Mapping which contains a User struct for each user that hav published or have requeested a content\n    mapping (bytes32 => SharedTypes.User) usersMapping;\n    // Mapping which link address to user: needed for functions like getContent\n    mapping (address => bytes32) addr2User;\n    \n    // Mapping which contains an ExtendedContent struct for each content published on the platform (identified by a string)\n    mapping (bytes32 => SharedTypes.ExtendedContent) contentsMapping;\n    // Array containing titles of contents published on the system (for loop functions)\n    bytes32[] contentsArray;\n    // Number of contents (also index of next content in the array)\n    uint contentsCount;\n    \n    \n    constructor () public payable {\n        contentsCount= 0;\n        usersCount= 0;\n    }\n    \n    \n    \n    // ************************************************************************************************************** //\n    // ************************************************************************************************************** //\n    // Modifiers\n    \n    // To check if the content \"_contentTitle\" is already published on catalog\n    modifier alreadyPublishedM (bytes32 _contentTitle) {\n        require (alreadyPublished(_contentTitle) == true);\n        _;\n    }\n    \n    // To check if the content \"_contentTitle\" is NOT already published on catalog\n    modifier notPublished (bytes32 _contentTitle) {\n        require (alreadyPublished(_contentTitle) == false);\n        _;\n    }\n    \n    // To check if no user with address \"_address\" was already registered\n    modifier addressNotRegistered (address _address) {\n        require (addr2User[_address] == \"\");      // Sembra funzionare\n        _;\n    }\n    \n    // To check if the user \"_username\" is NOT already registered on catalog\n    modifier userDoesntExist (bytes32 _username) {\n        require (userExists (_username) == false);\n        _;\n    }\n    \n    // To check if the user \"_username\" is already registered on catalog\n    modifier userExistsM (bytes32 _username) {\n        require (userExists(_username) == true);\n        _;\n    }\n    \n    // To check if the user \"_username\" has a premim account\n    modifier isPremiumM (bytes32 _username) {\n        require (isPremium(_username) == true);\n        _;\n    }\n\n\t// Check that the address '_sender' corresponds to content with title '_title'\n\tmodifier onlyRegisteredContent (bytes32 _title, address _sender) {\n\t\trequire (contentsMapping[_title].contractAddress == _sender);\n\t\t_;\n\t}\n    \n    // To check if \"_msgValue\" is equal to \"_price\"\n    modifier equalTo (uint _msgValue, uint _price) {\n        require (_msgValue == _price);\n        _;\n    }\n    \n    // To check if the user \"_username\" is already allowed to retreive content \"_contentTitle\". This function calls the \"isAllowed\" function on BaseContentManagementContract\n    modifier userAllowed (bytes32 _username, bytes32 _contentTitle) {\n        BaseContentManagementContract remoteContract= BaseContentManagementContract (contentsMapping[_contentTitle].contractAddress);\n        require (remoteContract.isAllowed(_username) == true);\n        _;\n    }\n    \n    // To check corectness of category value.\n    modifier isCorrectCategory (uint8 _category) {\n        require ((_category<=3) && (_category>=1));\n        _;\n    }\n    \n    // To check corectness of category value. Admits also value 0 because is the value for \"all categories\"\n    modifier isCorrectCategoryForGetRating (uint8 _category) {\n        require ((_category<=3) && (_category>=0));\n        _;\n    }\n    \n    \n    \n    // ************************************************************************************************************** //\n    // ************************************************************************************************************** //\n    // Helper private functions\n    \n    // Function which returns wether a content is already published on the platform\n    function alreadyPublished (bytes32 _conTitle) private view returns (bool) {\n        return (contentsMapping[_conTitle].exists == true);\n    }\n    \n    // Function to register a user to system ~ 125 k, ~95 k, ~95 k....\n    function addUser (bytes32 _username, address _userAddr) userDoesntExist(_username) addressNotRegistered(_userAddr) userDoesntExist (_username) private {\n        addr2User[_userAddr]= _username; // 20 k\n        \n        usersMapping[_username].userAddress= _userAddr;                         // 20 k\n        usersMapping[_username].exists= true;                                   // 22 k\n        \n        // Following field have already correct values\n        //usersMapping[_username].accType= SharedTypes.accountType.standard;\n        //usersMapping[_username].expirationTime= 0;\n        //usersMapping[_username].latestContent = 0x0;\n\n        usersCount++;                                                           // 20 la prima volta, 5 poi\n        usersArray.push (_username);                                            // 40 k\n        \n        emit NewUser (_username, _userAddr);                                    // 3 k\n    }\n    \n    // Function to add new content with address 'contAddr' registered by user with address 'userAddr'\n    function addContent (bytes32 _contentTitle, address _contentAddr, bytes32 _username, uint _price) notPublished(_contentTitle) private {\n        contentsCount++;\n        contentsArray.push (_contentTitle);\n        \n        contentsMapping[_contentTitle].exists           = true;\n        contentsMapping[_contentTitle].author           = _username;\n        contentsMapping[_contentTitle].contractAddress  = _contentAddr;\n        contentsMapping[_contentTitle].contentPrice     = _price;\n        \n        usersMapping[_username].latestContent= _contentTitle;\n\t\tusersMapping[_username].publishedContentsCount++;\n    }\n    \n    // Return true if current premium account is valid\n    function isPremiumValid (bytes32 _username, uint _currentBlockNumber) userExistsM(_username) private view returns (bool) {\n        return (usersMapping[_username].expirationTime > _currentBlockNumber);\n    }\n\n\t// Return true if at least one feedback is given, false otherwise\n    function atLeastOneFeedback (uint[3] feedsCount) private pure returns (bool) {\n        uint i\t= 0;\n        for (i=0; i<3; i++) {\n            if (feedsCount[i] != 0)\n\t\t\t\treturn true;\n        }\n\n        return false;\n    }\n    \n    // Return the average value of feedbacks, given as parameter\n    function feedbacksAverage (uint[3] feeds, uint[3] feedsCount) private pure returns (uint) {\n        uint feedsSum=0;\n        uint feedsCnt=0;\n        uint i=0;\n        \n        for (i=0; i<3; i++) {\n            if (feeds[i] != 0) {\n                feedsSum += feeds[i];\n                feedsCnt += feedsCount[i];\n            }\n        }\n        \n        if (feedsCnt != 0)\n            return feedsSum / feedsCnt;\n        else\n            return 0;\n    }\n    \n    // This function generalize getMostRated* operations\n    function genericGetMostRated (bool _filterByAuthor, bytes32 _author, bool _filterByGenre, bytes32 _genre, uint8 _category)\n                                private view isCorrectCategoryForGetRating(_category) returns (bytes32) {\n        require (contentsCount > 0);\n        \n        uint i\t\t\t\t\t= 0;\n        uint mostRatedIdx\t\t= 0;\n        uint mostRateValue\t\t= 0;\n        uint inspectedElements\t= 0;\n        \n        for (i=0; i<contentsCount; i++) {\n            BaseContentManagementContract content  = BaseContentManagementContract (contentsMapping[contentsArray[i]].contractAddress);\n            bytes32 currentAuthor                   = contentsMapping[contentsArray[i]].author;\n            \n            if (_filterByGenre && content.getGenre() != _genre)\n                continue;\n            if (_filterByAuthor && currentAuthor != _author)\n                continue;\n            \n            uint[3] memory feeds        = content.getFeedbacksAverages();\n            uint[3] memory feedsCount   = content.getFeedbacksCount();\n\n            if (_category == 0) {\n                // Calculating average and compare to temporary most rated\n                uint tmpRating  = feedbacksAverage (feeds, feedsCount);\n                if (tmpRating >= mostRateValue) {\n                    mostRatedIdx    = i;\n                    mostRateValue   = tmpRating;\n\t\t\t\t\tinspectedElements++;\n                }\n            }\n            else {\n                if (feeds[_category-1] >= mostRateValue) {\n                    mostRatedIdx    = i;\n                    mostRateValue   = feeds[_category-1];\n\t\t\t\t\tinspectedElements++;\n                }\n            }\n            \n            // inspectedElements++;\n        }\n        \n        // This instruction\n        require (inspectedElements > 0 && mostRateValue > 0);\n        \n        return contentsArray[mostRatedIdx];\n    }\n\n\t// This function send to author reward for the content\n    function sendReward (BaseContentManagementContract _remoteContract, bytes32 _contentTitle) private {\n        uint[3] memory feeds        = _remoteContract.getFeedbacksAverages();\n        uint[3] memory feedsCount   = _remoteContract.getFeedbacksCount();\n        address authorAddress\t\t= usersMapping[contentsMapping[_contentTitle].author].userAddress;\n\t\t\t\n        uint avg = feedbacksAverage (feeds, feedsCount);\n\t\t\n        authorAddress.transfer ((contentsMapping[_contentTitle].contentPrice * avg) / 5);\n    }\n    \n    \n    \n    // ************************************************************************************************************** //\n    // ************************************************************************************************************** //\n    // Public functions\n    \n    // Function which kills current contract. It is callable only from contract's owner\n    function killMe () public onlyOwner() {\n        \n        // First of all, it distrubutes payments amog authors\n        uint i\t\t\t= 0;\n        uint sumViews\t= 0;\n        for (i=0; i<contentsCount; i++) {\n            BaseContentManagementContract remoteContract\t= BaseContentManagementContract (contentsMapping[contentsArray[i]].contractAddress);\n            \n\t\t\tuint count\t\t= remoteContract.getViewsCount();\n\t\t\tbytes32 author\t= contentsMapping[contentsArray[i]].author;\n            \n            if ((count % MAX_VIEWS_LIMIT) != 0) {\n                address(usersMapping[author].userAddress).transfer ((count % MAX_VIEWS_LIMIT) * PAYOUT_FOR_AUTHOR);\n            }\n\n\t\t\tusersMapping[author].totalViews += count;\n            sumViews += count;\n        }\n        \n        if (sumViews > 0) {\n\t\t\tuint unit= address(this).balance / sumViews;\n        \n\t\t\t// Second, equally distribute current balance among authors\n\t\t\tfor (i=0; i<usersCount; i++) {\n\t\t\t\tif (usersMapping[usersArray[i]].totalViews > 0) {\n\t\t\t\t\tuint payment= unit * usersMapping[usersArray[i]].totalViews;\n\t\t\t\t\taddress (usersMapping[usersArray[i]].userAddress).transfer (payment);\n\t\t\t\t}\n\t\t\t}\n\t\t}\n        \n        emit CatalogDied ();\n        \n        selfdestruct (owner);\n    }\n    \n    \n    // Function that allows users to registrate themselves into service\n    function registerMe (bytes32 _username) public userDoesntExist (_username) addressNotRegistered (msg.sender) {\n        addUser (_username, msg.sender);\n    }\n    \n    \n    // Function to link a content with the system\n    function publishContent (bytes32 _username, bytes32 _contentTitle, uint _price, address _contentAddr) notPublished (_contentTitle) public {\n        if (!userExists(_username)) {\n            // Registering new user\n            addUser (_username, msg.sender);\n        }\n        \n        // Checking wether content's catalogAddress and contentTitle are correct\n        BaseContentManagementContract remoteContract= BaseContentManagementContract (_contentAddr);\n        require (remoteContract.getCatalogAddress() == address (this));\n        require (remoteContract.getTitle() == _contentTitle);\n        \n        addContent (_contentTitle, _contentAddr, _username, _price);\n        \n        emit ContentPublished (_username, _contentTitle, _contentAddr);\n    }\n    \n    \n    // Function to notify new view from another content manager\n    function notifyNewView (bytes32 _contentTitle, bytes32 _username) alreadyPublishedM (_contentTitle) onlyRegisteredContent (_contentTitle, msg.sender)\n\tuserExistsM (_username) userAllowed (_username, _contentTitle) public {\n        BaseContentManagementContract remoteContract\t= BaseContentManagementContract (msg.sender);\n        uint count\t\t\t\t\t\t\t\t\t\t= remoteContract.getViewsCount ();\n        \n        if ((count % MAX_VIEWS_LIMIT) == 0 && count != 0) {\n            sendReward (remoteContract, _contentTitle);\n        }\n    }\n    \n    \n    // Function to get a content's address\n    function getAddressOf (bytes32 _contentTitle) alreadyPublishedM (_contentTitle) public view returns (address) {\n        return contentsMapping[_contentTitle].contractAddress;\n    }\n\n\n\t// Function to obtain address of user _username\n    function getUserAddress (bytes32 _username) userExistsM (_username) public view returns (address) {\n        return usersMapping[_username].userAddress;\n    }\n\n\n\t// Function to check if a user exists or not in usersMapping\n    function userExists (bytes32 _username) public view returns (bool){\n        return (usersMapping[_username].exists == true);\n    }\n\n\n\t// Returns list of contents published by an author\n    function getContentsListByAuthor (bytes32 _author) userExistsM (_author) public view returns (uint count, bytes32[], address[], SharedTypes.contentType[]) {\n\t\tuint userContentsCount\t\t\t\t\t= usersMapping[_author].publishedContentsCount;\n        bytes32[] memory titles\t\t\t\t\t= new bytes32[] (userContentsCount);\n        address[] memory addresses\t\t\t\t= new address[] (userContentsCount);\n        SharedTypes.contentType[] memory types\t= new SharedTypes.contentType[] (userContentsCount);\n\n        uint i\t\t\t\t\t= 0;\n        uint j\t\t\t\t\t= 0;\n\t\t\n\n        for (i=0; i<contentsCount && j<userContentsCount; i++) {\n            bytes32 title\t= contentsArray[i];\n            if (contentsMapping[title].author == _author) {\n                titles[j]\t\t= title;\n                addresses[j]\t= contentsMapping[title].contractAddress;\n                types[j]\t\t= (BaseContentManagementContract (contentsMapping[title].contractAddress)).getType();\n                j++;\n\t\t\t}\n        }\n        \n        return (userContentsCount, titles, addresses, types);\n    }\n\n\n\t// Functions which returns (feedbacks + price + author) of content with title '_title'\n    function getInfoOf (bytes32 _title) alreadyPublishedM (_title) public view returns (uint[3], uint, bytes32, SharedTypes.contentType) {\n\t\tSharedTypes.ExtendedContent memory localContent\t= contentsMapping[_title];\n        BaseContentManagementContract remoteContent\t= BaseContentManagementContract (localContent.contractAddress);\n\t\t\n\t\treturn (remoteContent.getFeedbacksAverages(), localContent.contentPrice, localContent.author, remoteContent.getType());\n    }\n\n\n\t// Function to retreive price of certain content\n\tfunction getPriceOf (bytes32 _title) alreadyPublishedM (_title) public view returns (uint) {\n\t\treturn contentsMapping[_title].contentPrice;\n\t}\n    \n    \n    \n    \n    \n    // ************************************************************************************************************** //\n    // ************************************************************************************************************** //\n    // Required functions\n    \n    // Returns the number of views for each content\n    function getStatistics () public view returns (uint[], bytes32[]) {\n        uint[] memory stats= new uint[] (contentsCount);\n        bytes32[] memory strs= new bytes32[] (contentsCount);\n        uint i= 0;\n        bytes32 tmpCnt;\n        \n        for (i=0;i<contentsCount; i++) {\n            tmpCnt= contentsArray[i];\n            stats[i]= (BaseContentManagementContract (contentsMapping[tmpCnt].contractAddress)).getViewsCount();\n            strs[i]= tmpCnt;\n        }\n        \n        return (stats, strs);\n    }\n    \n    \n    // Returns the list of contents without the number of views\n    function getContentList () public view returns (bytes32[]) {\n        bytes32[] memory conList= new bytes32[] (contentsCount);\n        uint i=0;\n        \n        for (i=0; i<contentsCount; i++) {\n            conList[i]= contentsArray[i];\n        }\n        \n        return conList;\n    }\n    \n    \n    // Returns the list of x newest contents\n    function getNewContentList (uint _n) public view returns (bytes32[]) {\n        uint count=0;\n        uint i=0;\n        uint j=0;\n        \n        if (_n>contentsCount)\n            count=contentsCount;\n        else\n            count=_n;\n            \n        bytes32[] memory newest = new bytes32[] (count);\n            \n        while (count!=0) {\n            j=i;\n            i++;\n            newest[j]= contentsArray[contentsCount-(i)];\n            count--;\n        }\n        \n        return newest;\n    }\n    \n    \n    \n    // Returns the most recent content with genre x\n    function getLatestByGenre (bytes32 _genre) public view returns (bytes32) {\n        uint i= contentsCount;\n        bool found= false;\n        bytes32 reqStr;\n        \n        if (contentsCount == 0) {\n            return \"\";\n        }\n        \n        while (i != 0 && !found ) {\n            i--;\n            BaseContentManagementContract cont= BaseContentManagementContract(contentsMapping[contentsArray[i]].contractAddress);\n            if (cont.getGenre() == _genre) {\n                found = true;\n                reqStr= cont.getTitle();\n            }\n        }\n        \n        return reqStr;\n    }\n    \n    \n    \n    // Returns the content with genre x, which has received the maximum number of views\n    function getMostPopularByGenre (bytes32 _genre) public view returns (bytes32) {\n        bytes32 reqStr\t= \"\";\n        uint maximum\t=0;\n        uint i\t\t\t= contentsCount;\n\t\tuint count\t\t= 0;\n        \n        if (contentsCount == 0) {\n            return \"\";\n        }\n        \n        while (i != 0) {\n            i--;\n            BaseContentManagementContract remoteContract= BaseContentManagementContract(contentsMapping[contentsArray[i]].contractAddress);\n            if (remoteContract.getGenre() == _genre) {\n\t\t\t\tcount\t= remoteContract.getViewsCount();\n                if (count > maximum) {\n\t\t\t\t\tmaximum\t= count;\n                    reqStr\t= remoteContract.getTitle();\n\t\t\t\t}\n            }\n        }\n        \n        return reqStr;\n    }\n    \n    \n    \n    // Returns the most recent content of the author x\n    function getLatestByAuthor (bytes32 _author) userExistsM (_author) public view returns (bytes32) {\n        bytes32 reqStr\t= \"\";\n        bool found\t\t= false;\n        uint i\t\t\t= contentsCount;\n        \n        if (contentsCount == 0) {\n            return \"\";\n        }\n        \n        while (i != 0 && !found) {\n            i--;\n            bytes32 author= contentsMapping[contentsArray[i]].author;\n            if (author == _author) {\n                found = true;\n                reqStr= (BaseContentManagementContract(contentsMapping[contentsArray[i]].contractAddress)).getTitle();\n            }\n        }\n        \n        return reqStr;\n    }\n    \n    \n    \n    // Returns the content with most views of the author x\n    function getMostPopularByAuthor (bytes32 _author) userExistsM (_author) public view returns (bytes32) {\n        bytes32 reqStr\t= \"\";\n        uint maximum\t= 0;\n        uint i\t\t\t= contentsCount;\n\t\tuint count\t\t= 0;\n        \n        if (contentsCount == 0) {\n            return \"\";\n        }\n        \n        while (i != 0) {\n            i--;\n            BaseContentManagementContract remoteContract= BaseContentManagementContract(contentsMapping[contentsArray[i]].contractAddress);\n            if (contentsMapping[contentsArray[i]].author == _author) {\n\t\t\t\tcount\t= remoteContract.getViewsCount();\n                if (count > maximum) {\n\t\t\t\t\tmaximum\t= count;\n                    reqStr\t= remoteContract.getTitle();\n\t\t\t\t}\n            }\n        }\n        \n        return reqStr;\n    }\n    \n    \n    \n    // Returns true if x holds a still valid premium account, false otherwise\n    function isPremium (bytes32 _username)  userExistsM (_username) public view returns (bool) {\n        return (usersMapping[_username].accType == SharedTypes.accountType.premium);\n    }\n    \n    \n    \n    // Returns the content with highest rating for feedback category y (or highest average of all ratings if y is not specified)\n    // TEST ME\n    function getMostRated (uint8 _category) public view isCorrectCategoryForGetRating(_category) returns (bytes32) {\n        return genericGetMostRated (false, 0, false, '', _category);\n    }\n    \n    \n    \n    /* Returns the content with highest rating for feedback gategory _category\n     * (or highest average of all ratings if _category is not specified) with genre _genre */\n    function getMostRatedByGenre (bytes32 _genre, uint8 _category) public view returns (bytes32) {\n        return genericGetMostRated (false, 0, true, _genre, _category);\n    }\n    \n    \n    \n    /* Returns the content with highest rating for feedback category _category\n     * (or highest average of all ratings it _category is not specified) with author _author */\n    function getMostRatedByAuthor (bytes32 _author, uint8 _category) public view returns (bytes32) {\n        return genericGetMostRated (true, _author, false, '', _category);\n    }\n    \n    \n    // ************************************************************************************************************** //\n    // ************************************************************************************************************** //\n\n\t// Pays for access to content x (NOT ACCESS TO CONTENT!)\n    function getContent (bytes32 _contentTitle) userExistsM(addr2User[msg.sender]) alreadyPublishedM (_contentTitle)\n                                                equalTo (msg.value, contentsMapping[_contentTitle].contentPrice) public payable {\n\n        bytes32 senderUser= addr2User[msg.sender];\n        (BaseContentManagementContract (contentsMapping[_contentTitle].contractAddress)).grantAccessToUser (senderUser, msg.sender, false);\n        emit GrantedAccess (senderUser, msg.sender, _contentTitle, contentsMapping[_contentTitle].contractAddress);\n    }\n    \n    \n    \n    // Requests access to content x without paying, premium accounts only\n    function getContentPremium (bytes32 _contentTitle) isPremiumM (addr2User[msg.sender]) alreadyPublishedM (_contentTitle) public {\n        bytes32 senderUser= addr2User[msg.sender];\n        if (!isPremiumValid (senderUser, block.number)) {\n            usersMapping[senderUser].accType= SharedTypes.accountType.standard;\n            usersMapping[senderUser].expirationTime= 0;\n            revert ();\n        }\n        \n        (BaseContentManagementContract (contentsMapping[_contentTitle].contractAddress)).grantAccessToUser (senderUser, msg.sender, true);\n        emit GrantedAccess (senderUser, msg.sender, _contentTitle, contentsMapping[_contentTitle].contractAddress);\n    }\n    \n    \n    \n    // Pays for granting access for content x to the user u\n    function giftContent (bytes32 _contentTitle, bytes32 _receivingUser)\n    userExistsM(_receivingUser) alreadyPublishedM (_contentTitle) equalTo (msg.value, contentsMapping[_contentTitle].contentPrice) public payable {\n        // ******* --> Check preconditions (enough value..) + handle payments <-- *******\n        (BaseContentManagementContract (contentsMapping[_contentTitle].contractAddress)).grantAccessToUser (_receivingUser, usersMapping[_receivingUser].userAddress, false);\n        \n        //emit GrantedAccess (_receivingUser, usersMapping[_receivingUser].userAddress, _contentTitle, contentsMapping[_contentTitle].contractAddress);\n\t\temit GiftedAccess (_receivingUser, usersMapping[_receivingUser].userAddress, addr2User[msg.sender], _contentTitle, contentsMapping[_contentTitle].contractAddress);\n    }\n    \n    \n    \n    // Pays for granting a Premium Account to the user u\n    function giftPremium (bytes32 _receivingUser)  userExistsM(_receivingUser) equalTo (msg.value, PREMIUM_ACCOUNT_COST) public payable {\n        // ******* --> check preconditions + handle payments <-- *******\n        usersMapping[_receivingUser].accType= SharedTypes.accountType.premium;\n        usersMapping[_receivingUser].expirationTime= block.number + PREMIUM_ACCOUNT_DURATION;\n        \n        //emit GrantedPremium (_receivingUser,  usersMapping[_receivingUser].userAddress);\n\t\temit GiftedPremium (_receivingUser, usersMapping[_receivingUser].userAddress, addr2User[msg.sender]);\n    }\n    \n    \n    \n    // Starts a new premium subscription\n    function buyPremium () userExistsM(addr2User[msg.sender]) equalTo (msg.value, PREMIUM_ACCOUNT_COST) public payable {\n        // ******* --> check preconditions + handle payments <-- *******\n        bytes32 senderUser\t\t\t\t\t\t= addr2User[msg.sender];\n        usersMapping[senderUser].accType\t\t= SharedTypes.accountType.premium;\n        usersMapping[senderUser].expirationTime\t= block.number + PREMIUM_ACCOUNT_DURATION;\n        \n        emit GrantedPremium (addr2User[msg.sender],  usersMapping[addr2User[msg.sender]].userAddress);\n    }\n}",
  "sourcePath": "/home/luca/Universit/Progetti/P2PBC/COBrA-DApp/truffle/contracts/CatalogSmartContract.sol",
  "compiler": {
    "name": "solc",
    "version": "0.4.24+commit.e67f0147.Emscripten.clang"
  },
  "schemaVersion": "2.0.1",
  "updatedAt": "2018-11-01T10:53:31.340Z"
}