{
  "contractName": "SongManagementContract",
  "abi": [
    {
      "constant": true,
      "inputs": [],
      "name": "getType",
      "outputs": [
        {
          "name": "",
          "type": "uint8"
        }
      ],
      "payable": false,
      "stateMutability": "view",
      "type": "function"
    },
    {
      "constant": false,
      "inputs": [
        {
          "name": "_username",
          "type": "bytes32"
        },
        {
          "name": "_c",
          "type": "uint8"
        },
        {
          "name": "_v",
          "type": "uint8"
        }
      ],
      "name": "leaveFeedback",
      "outputs": [],
      "payable": false,
      "stateMutability": "nonpayable",
      "type": "function"
    },
    {
      "constant": true,
      "inputs": [],
      "name": "getFeedbacksCount",
      "outputs": [
        {
          "name": "",
          "type": "uint256[3]"
        }
      ],
      "payable": false,
      "stateMutability": "view",
      "type": "function"
    },
    {
      "constant": true,
      "inputs": [
        {
          "name": "_username",
          "type": "bytes32"
        }
      ],
      "name": "isAllowed",
      "outputs": [
        {
          "name": "",
          "type": "bool"
        }
      ],
      "payable": false,
      "stateMutability": "view",
      "type": "function"
    },
    {
      "constant": false,
      "inputs": [
        {
          "name": "_username",
          "type": "bytes32"
        }
      ],
      "name": "consumeContent",
      "outputs": [],
      "payable": false,
      "stateMutability": "nonpayable",
      "type": "function"
    },
    {
      "constant": false,
      "inputs": [],
      "name": "killMe",
      "outputs": [],
      "payable": false,
      "stateMutability": "nonpayable",
      "type": "function"
    },
    {
      "constant": true,
      "inputs": [],
      "name": "getCatalogAddress",
      "outputs": [
        {
          "name": "",
          "type": "address"
        }
      ],
      "payable": false,
      "stateMutability": "view",
      "type": "function"
    },
    {
      "constant": true,
      "inputs": [],
      "name": "getViewsCount",
      "outputs": [
        {
          "name": "",
          "type": "uint256"
        }
      ],
      "payable": false,
      "stateMutability": "view",
      "type": "function"
    },
    {
      "constant": false,
      "inputs": [
        {
          "name": "_username",
          "type": "bytes32"
        },
        {
          "name": "_userAddr",
          "type": "address"
        },
        {
          "name": "isPremium",
          "type": "bool"
        }
      ],
      "name": "grantAccessToUser",
      "outputs": [],
      "payable": false,
      "stateMutability": "nonpayable",
      "type": "function"
    },
    {
      "constant": true,
      "inputs": [],
      "name": "getFeedbacksAverages",
      "outputs": [
        {
          "name": "",
          "type": "uint256[3]"
        }
      ],
      "payable": false,
      "stateMutability": "view",
      "type": "function"
    },
    {
      "constant": true,
      "inputs": [],
      "name": "getTitle",
      "outputs": [
        {
          "name": "",
          "type": "bytes32"
        }
      ],
      "payable": false,
      "stateMutability": "view",
      "type": "function"
    },
    {
      "inputs": [
        {
          "name": "_title",
          "type": "bytes32"
        },
        {
          "name": "_catAddr",
          "type": "address"
        }
      ],
      "payable": false,
      "stateMutability": "nonpayable",
      "type": "constructor"
    },
    {
      "anonymous": false,
      "inputs": [
        {
          "indexed": false,
          "name": "targetUsername",
          "type": "bytes32"
        },
        {
          "indexed": false,
          "name": "contentTitle",
          "type": "bytes32"
        }
      ],
      "name": "FeedbackActivation",
      "type": "event"
    },
    {
      "constant": true,
      "inputs": [],
      "name": "getGenre",
      "outputs": [
        {
          "name": "",
          "type": "bytes32"
        }
      ],
      "payable": false,
      "stateMutability": "view",
      "type": "function"
    }
  ],
  "bytecode": "0x608060405234801561001057600080fd5b50604051604080610a0683398101604052805160209091015160008054600160a060020a03191633178155600580546007839055600694909455600160a860020a0319909316600160a060020a03909216919091179091556001819055600281905560038190556004805462ffffff1916905561097390819061009390396000f3006080604052600436106100b95763ffffffff7c010000000000000000000000000000000000000000000000000000000060003504166315dae03e81146100be57806320fe84f1146100f75780632f88d7a91461011e57806336ee0cb9146101445780637875529514610191578063a74bc4f9146101bd578063b603cd80146101d5578063bdac0763146101ea578063bdb578c71461021b578063da9376f214610230578063fbeb2fc414610259578063ff3c1a8f1461026e575b600080fd5b3480156100ca57600080fd5b506100d3610283565b604051808260038111156100e357fe5b60ff16815260200191505060405180910390f35b34801561010357600080fd5b5061010c610293565b60408051918252519081900360200190f35b34801561012a57600080fd5b5061014260043560ff602435811690604435166102b7565b005b34801561015057600080fd5b50610159610465565b6040518082606080838360005b8381101561017e578181015183820152602001610166565b5050505090500191505060405180910390f35b34801561019d57600080fd5b506101a96004356104c3565b604080519115158252519081900360200190f35b3480156101c957600080fd5b506101426004356104f2565b3480156101e157600080fd5b50610142610693565b3480156101f657600080fd5b506101ff6106b8565b60408051600160a060020a039092168252519081900360200190f35b34801561022757600080fd5b5061010c6106c7565b34801561023c57600080fd5b50610142600435600160a060020a036024351660443515156106cd565b34801561026557600080fd5b5061015961085d565b34801561027a57600080fd5b5061010c610922565b60055460a060020a900460ff1690565b7f736f6e670000000000000000000000000000000000000000000000000000000090565b6000838152600860205260408120548490339060ff60b060020a82041690600160a060020a031682148180156102ea5750805b15156102f557600080fd5b8660038160ff161115801561030e575060018160ff1610155b151561031957600080fd5b8660058160ff1611158015610331575060008160ff16115b151561033c57600080fd5b60008a81526008602052604090206000198a01908b9060010160ff83166003811061036357fe5b602081049091015460ff601f9092166101000a9004161561038357600080fd5b8b6000808281526008602052604090205460a060020a900460ff1660028111156103a957fe5b146103b357600080fd5b60018c0399508a60ff1660018b60ff166003811015156103cf57fe5b01805490910190556001600460ff8c16600381106103e957fe5b6020808204909201805460ff601f9093166101000a80820484169095018316850294830219169390931790925560008f8152600890915260409020600191908201908c166003811061043757fe5b602091828204019190066101000a81548160ff02191690831515021790555050505050505050505050505050565b61046d610928565b610475610928565b60005b60038110156104bd576004816003811061048e57fe5b602081049091015460ff601f9092166101000a9004168282600381106104b057fe5b6020020152600101610478565b50919050565b60008060008381526008602052604090205460a060020a900460ff1660028111156104ea57fe5b141592915050565b6000818152600860205260408120548290339060ff60b060020a82041690600160a060020a031682148180156105255750805b151561053057600080fd5b856000808281526008602052604090205460a060020a900460ff16600281111561055657fe5b141561056157600080fd5b600160008881526008602052604090205460a060020a900460ff16600281111561058757fe5b149550851561062257600780546001019055600554600654604080517fe173b0fc0000000000000000000000000000000000000000000000000000000081526004810192909252602482018a905251600160a060020a039092169163e173b0fc9160448082019260009290919082900301818387803b15801561060957600080fd5b505af115801561061d573d6000803e3d6000fd5b505050505b600087815260086020908152604091829020805475ffff00000000000000000000000000000000000000001916905560065482518a81529182015281517f852dafa23d660c18b6ebc3e8dd162d42554dc305dd64d6977414b586a6d58f74929181900390910190a150505050505050565b600054600160a060020a031633146106aa57600080fd5b600054600160a060020a0316ff5b600554600160a060020a031690565b60075490565b600554600160a060020a031633146106e457600080fd5b826000808281526008602052604090205460a060020a900460ff16600281111561070a57fe5b1461071457600080fd5b60008481526008602052604090205460b060020a900460ff16151561078a576000848152600860205260409020805460b060020a76ff00000000000000000000000000000000000000000000199091161773ffffffffffffffffffffffffffffffffffffffff1916600160a060020a0385161790555b81156107d6576000848152600860205260409020805474ff0000000000000000000000000000000000000000191674020000000000000000000000000000000000000000179055610807565b6000848152600860205260409020805474ff0000000000000000000000000000000000000000191660a060020a1790555b505050600090815260086020526040902060018101805462ffffff19169055805475ff00000000000000000000000000000000000000000019167501000000000000000000000000000000000000000000179055565b610865610928565b61086d610928565b60005b60038160ff1610156104bd57600460ff82166003811061088c57fe5b602081049091015460ff601f9092166101000a9004161561090357600460ff8216600381106108b757fe5b602081049091015460ff601f9092166101000a90048116906001908316600381106108de57fe5b01548115156108e957fe5b048260ff8316600381106108f957fe5b602002015261091a565b60008260ff83166003811061091457fe5b60200201525b600101610870565b60065490565b60606040519081016040528060039060208202803883395091929150505600a165627a7a7230582088d8516e37fac54b34312e8408ccefe46cd5ea1b4cbbce5a2fa2eda46e1542a00029",
  "source": "pragma solidity ^0.4.24;\n\nimport \"./BaseContentManagementContract.sol\";\nimport \"./CatalogSmartContract.sol\";        // FIXME Remove me!!!!!\n\n\n\n\ncontract SongManagementContract is BaseContentManagementContract {\n    \n    constructor (bytes32 _title, address _catAddr)\n\t\tBaseContentManagementContract(SharedTypes.contentType.song, _title, _catAddr) public {\n    }\n    \n    function getGenre () public view returns (bytes32) {\n\t\treturn 'song';\n    }\n}\n\n\n\n\n/* ********************************************* */\n/* ********************************************* */\n/* ********************************************* */\n\n\n\n\ncontract VideoManagementContract is BaseContentManagementContract {\n    constructor (bytes32 _title, address _catAddr)\n\t\tBaseContentManagementContract(SharedTypes.contentType.video, _title, _catAddr) public {\n    }\n    \n    function getGenre () public view returns (bytes32) {\n\t\treturn 'video';\n    }\n}\n\n\n\n\n/* ********************************************* */\n/* ********************************************* */\n/* ********************************************* */\n\n\n\n\ncontract PhotoManagementContract is BaseContentManagementContract {\n    constructor (bytes32 _title, address _catAddr)\n        BaseContentManagementContract(SharedTypes.contentType.photo, _title, _catAddr) public {\n    }\n    \n    function getGenre () public view returns (bytes32) {\n\t\treturn 'photo';\n    }\n}\n\n\n\n\n/* ********************************************* */\n/* ********************************************* */\n/* ********************************************* */\n\n\n\n\ncontract DocumentManagementContract is BaseContentManagementContract {\n    constructor (bytes32 _title, address _catAddr)\n        BaseContentManagementContract(SharedTypes.contentType.document, _title, _catAddr) public {\n    }\n    \n    function getGenre () public view returns (bytes32) {\n\t\treturn 'document';\n    }\n}\n\n\n",
  "sourcePath": "/home/luca/Università/Progetti/P2PBC/COBrA-DApp/truffle/contracts/ContentManagementContracts.sol",
  "compiler": {
    "name": "solc",
    "version": "0.4.24+commit.e67f0147.Emscripten.clang"
  },
  "schemaVersion": "2.0.1",
  "updatedAt": "2018-09-09T09:40:30.465Z"
}